:100000000C9434000C9449000C9449000C94490061
:100010000C9449000C9449000C9449000C9449003C
:100020000C9449000C9449000C9449000C9449002C
:100030000C9449000C9449000C9449000C9449001C
:100040000C9449000C9449000C9449000C9449000C
:100050000C9449000C9449000C9449000C944900FC
:100060000C9449000C94490011241FBECFEFD8E036
:10007000DEBFCDBF11E0A0E0B1E0ECE2F3E002C0F2
:1000800005900D92A230B107D9F70E9450010C944F
:1000900094010C9400008334A1F1843421F0823463
:1000A00009F045C017C04130510541F48AB1062E10
:1000B00001C0440F0A94EAF7842B0AC02AB181E0F8
:1000C00090E0062E01C0880F0A94EAF780958223FB
:1000D0008AB908954130510541F484B1062E01C01A
:1000E000440F0A94EAF7842B0AC024B181E090E01F
:1000F000062E01C0880F0A94EAF78095822384B9FE
:1001000008954130510541F487B1062E01C0440FD6
:100110000A94EAF7842B0AC027B181E090E0062E0A
:1001200001C0880F0A94EAF78095822387B9089561
:100130008334E1F0843489F1823409F044C04130E1
:10014000510541F485B1062E01C0440F0A94EAF727
:10015000842B0AC025B181E090E0062E01C0880FF3
:100160000A94EAF78095822385B9089541305105B4
:1001700041F488B1062E01C0440F0A94EAF7842B9B
:100180000AC028B181E090E0062E01C0880F0A94D1
:10019000EAF78095822388B908954130510541F4EA
:1001A0008BB1062E01C0440F0A94EAF7842B0AC0D3
:1001B0002BB181E090E0062E01C0880F0A94EAF787
:1001C000809582238BB90895833431F0843431F0E3
:1001D000823471F483B103C086B101C089B190E06B
:1001E00002C0959587956A95E2F7817099270895E1
:1001F00081E090E00895519A50981092C50087E6EA
:100200008093C400E1ECF0E080818860808380818D
:100210008061808386E08093C20008958091C00051
:1002200087FFFCCF8091C60008959091C00095FF94
:10023000FCCF8093C6000895CF93DF93EC018991A2
:10024000882319F00E941501FACFDF91CF9108950C
:10025000FF920F931F93CF93DF93CDB7DEB72B970A
:100260000FB6F894DEBF0FBECDBF8E010F5F1F4FDC
:10027000F02E912F9B870E940E01F80181938F0130
:100280009B858A30B9F78F2D2B960FB6F894DEBF79
:100290000FBECDBFDF91CF911F910F91FF900895B9
:1002A000CF93DF931F92CDB7DEB73D9A3C9A0E9461
:1002B000FB0000E011E08091C00087FFFCCF80913F
:1002C000C60090E08230910571F465E070E083E44F
:1002D0000E94E40041E050E0892B11F040E050E042
:1002E00065E070E010C08430910589F464E070E04E
:1002F00083E40E94E40041E050E0892B11F040E0EB
:1003000050E064E070E083E40E949800D4CF059749
:1003100091F6098365E070E083E40E94E400CE0179
:0C03200001960E941C01C7CFF894FFCF8B
:02032C0031009E
:00000001FF
